:020000040800F2
:1000000000500020CD010008D1010008D3010008F4
:100010001102000813020008290200080000000075
:100020000000000000000000000000003F02000887
:100030004102000800000000430200089D0D000876
:10004000590200085902000859020008FD0F000873
:100050005902000859020008590200085902000814
:100060005902000859020008590200085902000804
:1000700059020008590200085902000859020008F4
:1000800059020008590200085902000859020008E4
:1000900059020008590200085902000859020008D4
:1000A00059020008590200085902000859020008C4
:1000B000E90E000859020008DD0F00085902000887
:1000C00059020008590200085902000859020008A4
:1000D0005902000859020008590200085902000894
:1000E00059020008590200085902000800000000E7
:1000F0000000000000000000000000000000000000
:1001000000000000000000005FF808F107B500F0F3
:10011000C5FB234A234B24498B4204D252F8041FC7
:1001200043F8041BF7E7214B214A934203D20022F4
:1001300043F8042BF8E700F0B3FB684601A900F090
:10014000A5FB1C4B1C4C1E46E41AA4100025A5421E
:1001500004DA56F8253098470135F8E7174B184C64
:100160001E46E41AA4100025A54204DA56F82530EC
:1001700098470135F8E79DE8030000F0ABFF114B0D
:1001800006461D46104CE41AA410002C04DD013C68
:1001900055F824309847F8E7304600F074FB00BF6C
:1001A000381100080000002040000020400000201E
:1001B0006C0000205C0200085C0200085C02000881
:1001C0005C0200085C0200085C0200081E48004750
:1001D000FEE71EF0040F0CBFEFF30880EFF3098079
:1001E00071461A4A104710B5084C236B9B070BD574
:1001F000E36A002B08DA4BF6AB6100F063FB18B141
:100200004FF00043E36210BDFEE700BF00ED00E0E9
:10021000FEE71EF0040F0CBFEFF30880EFF3098038
:1002200071460B4A1047FEE71EF0040F0CBFEFF3B8
:100230000880EFF309807146064A1047FEE7FEE7A3
:10024000FEE7FEE7704700000D010008E701000827
:0C025000270200083D020008FEE7000045
:10025C0040F0BF60024B40F40030D860704700BFE4
:10026C0000ED00E0C27810B503780AB3164A03F12A
:10027C006043D4684278E443C4F30224C4F104011B
:10028C0002FA01F10F22E240847803F56143224027
:10029C000A431201D2B283F80023037801225909D0
:1002AC0003F01F0302FA03F3084A42F8213010BD91
:1002BC005A09012103F01F03994002F12003034A5C
:1002CC0042F8231010BD00BF00ED00E000E100E09B
:1002DC00CA78F0B5D40648BF8C780D8802F00F03AD
:1002EC0048BF234315F0FF0F1DD0016800240126E1
:1002FC00A64006EA0507B74211D14FEA840E0F2635
:10030C0006FA0EF621EA0601282A03FA0EF641EA4D
:10031C00060101D1476102E0482A08BF0761013498
:10032C00082CE4D10160FF2D1FD94168002404F191
:10033C0008070126BE4006EA0507B74211D14FEA6D
:10034C00840E0F2606FA0EF621EA0601282A03FA75
:10035C000EF641EA060101D1476102E0482A08BFC6
:10036C0007610134082CE2D14160F0BD8368194269
:10037C0014BF0120002070471C4A10B5536803F0CD
:10038C000C03042B01D0082B01D0194B0EE0536841
:10039C005168C3F38343CC0303F1020302D55168C4
:1003AC00890301D5134900E011494B43036053689D
:1003BC00114CC3F30313E15C0368CB4043605168F9
:1003CC00C1F30221615C23FA01F181605168C1F330
:1003DC00C221615CCB40C36052680849C2F38132D0
:1003EC008A5CB3FBF2F3036110BD00BF0010024046
:1003FC0000127A0000093D000400002000000020DB
:10040C00044B9A6909B1104301E022EA000098619B
:10041C00704700BF00100240044BDA6909B1104369
:10042C0001E022EA0000D861704700BF00100240D2
:10043C00224A038890429BB212D002F5006290428D
:10044C000ED0B0F1804F0BD0A2F59832904207D06D
:10045C0002F58062904203D002F58062904203D193
:10046C004A8823F070031343154A904208D002F5D2
:10047C00806290421FBF23F44073CA889BB213431F
:10048C0003808B8883850B8803850C4B98420FD097
:10049C0003F5006398420BD003F54063984207D0F4
:1004AC0003F58063984203D003F58063984201D131
:1004BC000B7A038601238382704700BF002C014016
:1004CC0000100040038C70B523F001031B041B0CBF
:1004DC000384028C8688038B0D8823F073031B0422
:1004EC001B0C1D4322F002024C880B891204120CC7
:1004FC0023431343144AB6B290429BB20FD002F579
:10050C00006290420BD002F54062904207D002F597
:10051C008062904203D002F5806290420ED14C89E9
:10052C0023F008031C438B8824F0040426F4407247
:10053C002343CE898C893443224396B2CA88868061
:10054C0005838286038470BD002C0140038C30B57A
:10055C0023F010031B041B0C0384038C8588028B73
:10056C000C8822F4E6421204120C42EA042223F014
:10057C00200394B21B040A891B0C43EA02134A8819
:10058C00ADB243EA0213124A9BB2904203D002F579
:10059C000062904215D123F080034A899BB243EA52
:1005AC0002124FF6BF7313408A8825F4406543EA64
:1005BC0002138A899BB245EA8205CA8945EA8205FB
:1005CC00ADB2CA88858004830287038430BD00BF26
:1005DC00002C0140038C30B523F480731B041B0CDE
:1005EC000384038C8488828B0D8822F0730212049E
:1005FC00120C23F4007315431B040A891B0C43EAE9
:10060C0002234A88A4B243EA0223124A9BB29042C4
:10061C0003D002F50062904215D123F400634A899D
:10062C009BB243EA02224FF6FF3313408A8824F42C
:10063C00405443EA02238A899BB244EA0214CA89D1
:10064C0044EA0214A4B2CA88848085838287038416
:10065C0030BD00BF002C0140038C30B523F4805317
:10066C001B041B0C0384038C8488828B0D8822F45E
:10067C00E6421204120C23F4005342EA05221B0436
:10068C000D891B0C43EA05334D88A4B243EA0533AC
:10069C000A4D92B2A8429BB203D005F50065A84260
:1006AC0005D18D8924F4804444EA8514A4B2848055
:1006BC008283CA88A0F84020038430BD002C0140FE
:1006CC00038819B19BB243F0010303E023F001034B
:1006DC001B041B0C0380704783899BB20AB119431E
:1006EC0001E023EA01018181704701858282704714
:1006FC00038B23F008031B041B0C19430183704765
:10070C00038B23F400631B041B0C43EA012189B205
:10071C0001837047838B23F008031B041B0C1943C4
:10072C0081837047838B23F400631B041B0C43EA07
:10073C00012189B281837047818670470187704798
:10074C0081877047A0F840107047808E80B2704748
:10075C00008F80B27047808F80B27047B0F8400035
:10076C0080B27047038A828911EA030092B203D0E7
:10077C00114214BF012000207047C94389B2018285
:10078C007047000070B50E460446038ACA889BB2B7
:10079C0023F440531343038282890989B38892B2AC
:1007AC000B43718922F4B0520B4322F00C02134319
:1007BC009BB28381838AB2899BB223F4407386B047
:1007CC001343838201A8FFF7D7FD039B049D174AAF
:1007DC003168944218BF1D46A38919226A431BB283
:1007EC00002BB4BF4D008D00B2FBF5F56426B5FBB4
:1007FC00F6F00001010906FB1153A28912B2002A7E
:10080C00ADBF1A01D90032313232B5BFB1FBF6F2AD
:10081C00B2FBF6F302F0070203F00F03B4BF104370
:10082C00184380B2208106B070BD00BF0038014073
:10083C00838919B19BB243F4005303E023F40053B2
:10084C001B041B0C8381704710B5C1F342140123A8
:10085C0001F01F01012C03FA01F301D10C3003E06C
:10086C00022C0CBF1030143012B10268134302E09A
:10087C00026822EA0303036010BD08B500F00CF80F
:10088C0001230360014B0B60704700BF1400002074
:10089C0000F020B800F098B8BFF34F8F0449054B17
:1008AC00CA6802F4E0621343CB60BFF34F8FFEE7DC
:1008BC0000ED00E00400FA0583691A888A4207D12A
:1008CC000268033A012A03D802338361012070477E
:1008DC0000207047384B82B01A6842F001021A604F
:1008EC005968364A0A405A601A6822F0847222F417
:1008FC0080321A601A6822F480221A605A6822F434
:10090C00FE025A604FF41F029A600022009201927C
:10091C001A6842F480321A601A6802F400320192AA
:10092C00009A01320092019A1AB9009AB2F5A06F9E
:10093C00F2D11A6812F4003218BF01220192019A06
:10094C00012A05D01E4B4FF000629A6002B070472E
:10095C001C4A116841F010011160116821F003016B
:10096C001160116841F0020111605A685A605A68AE
:10097C005A605A6842F480625A605A6822F47C12B7
:10098C005A605A6842F4E8125A601A6842F080724F
:10099C001A601968084A8901FBD5516821F00301D6
:1009AC005160516841F0020151605A6802F00C022A
:1009BC00082AFAD1C6E700BF001002400000FFF879
:1009CC0000ED00E000200240114A124B516801F08A
:1009DC000C01042901D0082901D00F490EE05168FF
:1009EC005068C1F38341C00301F1020102D5506884
:1009FC00800301D5094800E007484143196052685B
:100A0C000749C2F30312895C1A68CA401A6070471E
:100A1C00001002402C00002000127A0000093D005A
:100A2C001C00002007B50323ADF804008DF8063038
:100A3C000448102301A98DF80730FFF749FC03B0D7
:100A4C005DF804FB0010014007B503238DF8063058
:100A5C000423ADF804000DEB030104488DF80730B6
:100A6C00FFF736FC03B05DF804FB00BF001001403B
:100A7C00F7B5454C002501208DF80750FFF7D2FF44
:100A8C006369642043F00103636100F083F9236917
:100A9C0043F00103236100F015FB01208DF8075092
:100AAC0042F21174FFF7D0FF37480121FFF75EFCCB
:100ABC00013C8DF8070003D09DF80730002BF3D0D4
:100ACC0042F2117430480121FFF750FC013C8DF8C3
:100ADC00070006D09DF8073003F0FF05002BF1D17D
:100AEC0000E0254600242746072627480121FFF76A
:100AFC003DFC42F210730134A4B29C4201D8002890
:100B0C00F3D000F0DFFA20480121FFF72FFC88B169
:100B1C000123B3403B43DFB200241B480121FFF704
:100B2C0025FC42F211730134A4B29C4203D000287C
:100B3C00F3D100E0044616F1FF36D6D2134AAF5477
:100B4C000135052DCED1547815789078D17863196C
:100B5C0003440B441279DBB29A4218BF4DF6AD61D7
:100B6C000B4B0C4A03BF00F07F0041EA002144EA22
:100B7C0005241980118008BF1C80074912881B8826
:100B8C004A808B8003B0F0BD001001405A00002059
:100B9C0058000020600000203800002008B510200C
:100BAC000121FFF72DFC08200121FFF729FC012072
:100BBC000146FFF725FC4FF480400121FFF720FC94
:100BCC0004200121FFF71CFCBDE808400120014670
:100BDC00FFF722BC73B5274D4FF400730324ADF817
:100BEC0004302846182301A98DF807308DF80640EB
:100BFC00FFF76EFB4FF48063ADF804301E4E0423F8
:100C0C000DEB030128468DF8073010258DF80640B2
:100C1C00FFF75EFB304601A98DF807508DF80640B2
:100C2C00FFF756FB43F2FF73304601A9ADF80430D1
:100C3C00FFF74EFB8DF80750104D01A928468DF893
:100C4C000640FFF745FB40F62773284601A9ADF88F
:100C5C000430FFF73DFBC023ADF8043028462823B1
:100C6C0001A98DF806408DF80730FFF731FB02B073
:100C7C0070BD00BF0008014000100140000C014095
:100C8C0037B54FF4E060FFF7E3FA00250124252384
:100C9C0001A88DF804308DF806508DF80740FFF749
:100CAC00E1FA2946042201A800F039FA1C2301A814
:100CBC008DF804308DF805508DF806408DF80740FE
:100CCC00FFF7D0FA2946042201A800F028FA1E23C7
:100CDC0001A88DF804308DF805508DF806408DF87C
:100CEC000740FFF7BFFA2946042201A800F017FAC3
:100CFC00032301A88DF804308DF805508DF80640BB
:100D0C008DF80740FFF7AEFA03B030BD1FB5104C9D
:100D1C004FF4E13300930023ADF80430ADF8063006
:100D2C00ADF80830ADF80C3020460C236946ADF810
:100D3C000A30FFF727FD2046012240F22551FFF72C
:100D4C0083FD20460121FFF773FD04B010BD00BFE9
:100D5C000038014010B501390DD0074B10F8012BAC
:100D6C001C8814F0800F1C461CBF92B29A802388FA
:100D7C001B06FCD5EFE710BD00380140034B1A6889
:100D8C0012B11A68013A1A60704700BF5000002077
:100D9C00FFF7F4BF13B50190019B0B4C013B4FF0D7
:100DAC0080402360FFF7D4FC084B1880084B1B884D
:100DBC00C11889B24FF08040FFF7C0FC2368002BAC
:100DCC00FCD102B010BD00BF4C0000204800002038
:100DDC00320000203B4B3C4A1B6830B5B3FBF2F3AE
:100DEC00013B89B000249BB2ADF80240ADF8023053
:100DFC004FF6FF7301A94FF08040ADF80830ADF805
:100E0C000440ADF80A40ADF80640FFF711FBBDF801
:100E1C00021001224FF0804089B2FFF766FC2B4B89
:100E2C0001251B8804A94FF08040ADF81630ADF8B1
:100E3C001040ADF81250ADF81840FFF743FB2146B7
:100E4C004FF08040FFF754FC214B04A91B884FF056
:100E5C008040ADF81630ADF81250FFF777FB214605
:100E6C004FF08040FFF74CFC1A4B04A91B884FF045
:100E7C008040ADF81630ADF81250FFF7ABFB2146B1
:100E8C004FF08040FFF746FC134B04A91B884FF032
:100E9C008040ADF81630ADF81250FFF7DDFB21465F
:100EAC004FF08040FFF73EFC2A464FF080401E2159
:100EBC00FFF712FC4FF080402946FFF701FC09B008
:100ECC0030BD00BF2C000020001BB70030000020FC
:100EDC0032000020340000203600002010B54FF006
:100EEC0080400221FFF73EFC324CB8B102214FF09A
:100EFC008040FFF742FC304A4FF080401368013BC2
:100F0C001360FFF722FC2D4B20801B88BDE810409E
:100F1C00C11889B24FF08040FFF70EBC4FF08040F3
:100F2C000421FFF71FFCB8B104214FF08040FFF7FC
:100F3C0024FC234A4FF080401368013B1360FFF7F9
:100F4C0007FC204B20801B88BDE81040C11889B2DB
:100F5C004FF08040FFF7F2BB4FF080400821FFF7C5
:100F6C0001FC98B108214FF08040FFF706FC4FF0D0
:100F7C008040FFF7F0FB144B20801B88BDE810402D
:100F8C00C11889B24FF08040FFF7DABB10214FF047
:100F9C008040FFF7F2FB4FF08040FFF7DFFB0B4B7D
:100FAC0020801B88BDE81040C11889B24FF08040EA
:100FBC00FFF7C8BB48000020540000203000002080
:100FCC004C000020320000203400002036000020AD
:100FDC0008B506480221FFF7C5FB28B1BDE808405B
:100FEC0002480221FFF7C9BB08BD00BF0008004042
:100FFC00114B10B59B88DB071CD5104C08222368BD
:10100C000F4901330F48236000F07EF80D4808218A
:10101C00FFF7A0FE23684FF4805213F0010F0A4B28
:10102C0014BF5A611A61044A938823F001031B040C
:10103C001B0C938010BD00BF002800404400002012
:10104C003800002062000020001001401A4B1B49A0
:10105C00DA6942F0C052DA610A6842F480720A60BE
:10106C001A6A42F001021A62196A134A8907FBD5FF
:10107C00136A43F480731362136A43F400431362DC
:10108C000F4B9A889206FBD59A8892B242F01002C6
:10109C009A8047F6FF729A811A8892B242F0010246
:1010AC001A809A8822F010021204120C9A80044BB7
:1010BC009B889B06FBD570470010024000700040D7
:1010CC00002800407047000008B5FFF767FDFFF7E8
:1010DC0081FDFFF7BBFFFFF77DFEFFF717FEFFF764
:1010EC00CFFDFFF771FC4FF6FF72064B5A611A6980
:1010FC0042F004021A61FFF7BBFC4FF4FA70FFF7E1
:10110C0049FEF8E70010014010B5431E0A44914215
:10111C0004D011F8014B03F8014FF8E710BD03465A
:0E112C000244934202D003F8011BFAE7704719
:10113C00020406080000000001020304010203047B
:10114C000607080940000020000000000000000015
:10115C0000000000010203040607080900A24A046B
:10116C00E02EB0045635AA1AAAAABB00CC000A007D
:040000050800010DE1
:00000001FF
